:0C0000000C9488000C94CB000C94CC00F5
:040020000C94CD006F
:14008C004275696C7420776974682044454D4F20636F6D7070
:1400A000696C65722E204E4F4E2D434F4D4D45524349414C5E
:1400B40020555345204F4E4C5920687474703A2F2F696D611A
:1400C800676563726166742E636F6D0A0005320F0000050086
:1400DC000000000102000102010100746F20626567696E21DF
:1400F0000050726573732050443700474F212100312E2E2E71
:0B01040000322E2E2E00332E2E2E0077
:14011000CFEFD0E1CDBFDEBFC451D0400AEA08830024EBE3AD
:14012400F1E011E0ED33F10711F00192FBCF0083E4EDF0E06B
:14013800A0E0B1E011E000E00BBFEF30F10721F0C8953196BB
:14014C000D92F9CF0E94E600FFCF2224021568F0209002017A
:14016000021548F42224221530F020900301221610F001E0CE
:1401740001C00027089520900901309007013218209008016D
:14018800409006014218430C409201010895189518952A925C
:14019C008A932FB62A9282E0209000012826209200012990C4
:1401B0002FBE899129901895789489B7836089BF80916A00DC
:1401C4008A6080936A0008958FEF87BB88BB222421BA0E945D
:1401D8003A010E94C201ECDF0E94DC010DE111E00E949D010A
:1401EC00222701E00E94AD0103E111E00E949D0104C087998C
:1402000002C00E940501FBCF08950E94BD010E94DC0106E351
:1402140011E00E949D0104EF11E00E9431010E94DC0101E38A
:1402280011E00E949D0104EF11E00E9431010E94DC010CE26C
:14023C0011E00E949D0104EF11E00E9431010E94DC0107E25D
:1402500011E00E949D0104EF11E00E9431010C94BD01AA9217
:14026400BA92580185010E94E101B990A99008958FEF8ABBF5
:140278008FE0809364000895AA92A02E809165008460809378
:14028C006500809165008D7F80936500809165008160809395
:1402A000650002E310E00E94F801ABBA02E310E00E94F801A0
:1402B400809165008E7F80936500A9900895AA92A02E80914A
:1402C80065008B7F80936500809165008D7F80936500809130
:1402DC00650081608093650002E310E00E94F801ABBA02E396
:1402F00010E00E94F801809165008E7F80936500A99008959E
:140304004A93402F413029F40CE1D9DF01E010E0A6DF4423A9
:1403180029F408E1D2DF01E010E09FDF49910895AA92A02E4A
:14032C0001E010E098DF0A2DA5DFA99008954A935A93A80171
:1403400005C0FA010081F0DF4F5F5F4FFA0120802220B9F7B0
:14035400599149910895AA92CA92A22EC02E2C2D332700E447
:1403680010E00E940F020A0D0068A7DFC990A990089501E0C9
:14037C00A2DF02E010E06FCF08E39DDF02E010E06ADF08E36F
:1403900098DF02E010E065DF08E393DF02E010E060DF0CE072
:1403A4008EDF02E010E05BDF06E089DF02E010E056DFE1CFC7
:1403B80002E083DF02E010E050CF0E941F02442755270CC086
:1403CC006627772702C06F5F7F4F82E598E068177907C8F3FB
:1403E0004F5F5F4F4017510788F30C94240208950E941F025D
:1403F400442755270CC06627772702C06F5F7F4F82E090E0E7
:1404080068177907C8F34F5F5F4F4017510788F30C942402DA
:14041C0008950A921A928A939A93029FC001129F900D039F4B
:14043000900D8C01999189911990099008957A936A935A9374
:0E0444004A93089549915991699179910895CB
:00000001FF
